:020000040800F2
:10000000A86A002059030008A9490008D93F000840
:1000100015480008391A0008A95700080000000018
:100020000000000000000000000000009502000831
:10003000F91A000800000000F1020008594E0008FB
:1000400073030008730300087303000873030008B8
:1000500073030008730300087303000873030008A8
:100060007303000873030008730300087303000898
:100070007303000873030008730300087303000888
:100080007303000873030008730300087303000878
:100090007303000873030008730300087303000868
:1000A0007303000873030008730300087303000858
:1000B0007303000873030008194F00087303000856
:1000C0007303000873030008730300087303000838
:1000D000730300089D5700087303000873030008AA
:1000E0007303000873030008730300087303000818
:1000F0007303000873030008730300087303000808
:1001000073030008730300087303000873030008F7
:1001100073030008730300087303000873030008E7
:1001200073030008730300083D1A000873030008F6
:1001300073030008000000000000000073030008C3
:1001400073030008730300087303000873030008B7
:100150007303000873030008491A000873030008BA
:100160007303000873030008730300087303000897
:100170007303000873030008000000000000000083
:10018000730300087303000800F002F800F073F82E
:100190000AA090E8000C82448344AAF10107DA45E2
:1001A00001D100F068F8AFF2090EBAE80F0013F0C1
:1001B000010F18BFFB1A43F00103184734BB0000BE
:1001C00054BB00000A444FF0000C10F8013B13F040
:1001D000070408BF10F8014B1D1108BF10F8015BA0
:1001E000641E05D010F8016B641E01F8016BF9D193
:1001F00013F0080F1EBF10F8014BAD1C0C1B09D1EA
:100200006D1E58BF01F801CBFAD505E014F8016B5B
:1002100001F8016B6D1EF9D59142D6D370470000ED
:100220000023002400250026103A28BF78C1FBD8FF
:10023000520728BF30C148BF0B60704766290BF0DA
:100240004483642900F08A81782900F0C38100206A
:1002500070471FB50BF02FFB9DE8030000F020FB5B
:1002600000F03EFE0400002000210AF0E9FBE060FF
:100270001FBD10B510BD00F055FF1146FFF7E9FF97
:1002800008F0BCFB00F073FF03B4FFF7F2FF03BC00
:1002900000F0E4FF2C4B19680868B0E8F04F80F3D9
:1002A0000988BFF36F8F4FF0000080F3118870470B
:1002B0000000000008480068006880F308884FF0DC
:1002C000000080F3148862B661B6BFF34F8FBFF3AE
:1002D0006F8F00DF00BF00BF08ED00E0DFF80C000B
:1002E000016841F470010160704700BF88ED00E0D3
:1002F000EFF30980BFF36F8F134B1A681EF0100FD6
:1003000008BF20ED108A20E9F04F106009B44FF0CB
:10031000500080F31188BFF34F8FBFF36F8F09F048
:100320003DFD4FF0000080F3118809BC1968086892
:10033000B0E8F04F1EF0100F08BFB0EC108A80F349
:100340000988BFF36F8F704720010020EFF305800D
:1003500070470000C0BA7047094880470948004705
:10036000FEE7FEE7FEE7FEE7FEE7FEE7FEE7FEE765
:10037000FEE7FEE704480549054A064B70470000C2
:10038000094F000889010008A85A0020A86A002027
:10039000A8620020A862002070B5064600F064FA4A
:1003A000056806F10B0020F00704B4429CBF002052
:1003B00070BD2B466A68BAB11068A04210D304F130
:1003C000080188423CBF5068586007D35168101933
:1003D00041601168091B016058601460101D70BDF8
:1003E00013465268002AE7D12146284600F044FA15
:1003F0000028DED170BD70B50446051F00F034FA48
:100400000068002C14BF446870BD002C18BFAC42BB
:100410003CBF20466468F8D301680A18AA4218BF96
:10042000456003D12A6805461144016028684119D6
:10043000A1421CBF6C6070BD61686960216808449E
:10044000286070BD53EA020C00F069802DE9F04B82
:100450004FF00006002B1FBFB3FA83F503FA05F433
:1004600024FA05F65E4012BF1643B2FA82F502FA8C
:1004700005F4C5F120051EBF22FA05FC44EA0C0470
:10048000203556EA044C4FEA144418BF641C4FF060
:1004900000084FF00009904271EB030C39D300299A
:1004A00019BFB1FA81F701FA07F6B0FA80F700FA3E
:1004B00007F6C7F120071EBF20FA07FC46EA0C0624
:1004C0002037B6FBF4FCA7EB0507103F07F01F0B26
:1004D000CBF120060CFA0BFB2CFA06F644BFB34610
:1004E0000026202FA4BF5E464FF0000B5BEA060CEF
:1004F00008BF4FF0010B19EB0B09ABFB027C48EB7B
:100500000608C01B06FB02CC0BFB03CC71EB0C01F5
:10051000C1E70B46024641464846BDE8F08B13B59D
:100520004FF000004FF00001AFF30080BDE81C4029
:10053000704700000FB41CB5074B06AA7B44694600
:100540000090059800F05BFC0020694600F06AFC12
:100550001CBC5DF814FB0000E50800002DE9F0412B
:100560000646002410687529314616A510D0AFF351
:100570000080002802DA404213A507E031688A07AC
:1005800001D512A502E0490704D511A5012401E017
:10059000AFF3008000210A2206F1240709E0B0FB36
:1005A000F2FCB0FBF2F302FB1C003030785418462A
:1005B000491C0028F3D123462A463046BDE8F041C5
:1005C00000F0AFB9000000002D0000002B0000007B
:1005D0002000000070B504460D4621461068AFF3B8
:1005E00000802188090502D50F4A7A4402E00E4AAC
:1005F0007A440E32002104F1240305E000F00F06D6
:100600000009965D5E54491C0028F7D1207800232C
:10061000000704D5702D02D009B102231132204603
:10062000BDE8704000F07DB98AB400002DE9F047C4
:100630004FF0000A89460446C0F820A02046E16831
:100640008847002876D0252806D0D4E90121904794
:10065000206A401C2062F1E7E168204600258847B7
:10066000C4F81CA006460027C4F818A02A2E09D0FA
:10067000304607F01DF938B304EB8708303EC8F860
:10068000186019E059F8041B204604EB87029161B9
:10069000E1688847012F064618D1E069002820DA72
:1006A00025F020051DE0D8F8180000EB800006EBCF
:1006B00040003038C8F818002046E16888470646F0
:1006C00007F0F6F80028EED1012F0AD02E2E08D11F
:1006D0002046E16888477F1C0646022F45F020052A
:1006E000C4DBA069002803DA404245F00105A0619F
:1006F000E80701D025F01005B6B1A6F14100192890
:1007000002D8203645F400654A4631462046256029
:100710004D46FFF793FD58B1012806D0ED1D25F099
:10072000070000F1080989E704E005F1040985E7FD
:1007300030468AE7206ABDE8F08710B5431C02E026
:1007400010F8011B71B18107FAD14FF0013202C8D4
:100750008C1A8C4314EAC211F9D0C01A0A0603D0CD
:10076000C01E10BDC01A10BD0A0401D0801E10BDED
:100770000902FCD0401E10BD032A40F2308010F068
:10078000030C00F0158011F8013BBCF1020F62442C
:1007900098BF11F801CB00F8013B38BF11F8013BBD
:1007A000A2F1040298BF00F801CB38BF00F8013B6A
:1007B00011F0030300F03B83083AC0F0088051F8C1
:1007C000043B083A51F804CBA0E80810F5E7121DE5
:1007D0005CBF51F8043B40F8043BAFF30080D20704
:1007E00024BF11F8013B11F801CB48BF11F8012BD0
:1007F00024BF00F8013B00F801CB48BF00F8012BF3
:10080000704702F0FF0343EA032242EA024200F08B
:1008100042BB4FF0000200B513469446964620397D
:1008200022BFA0E80C50A0E80C50B1F12001BFF4A9
:10083000F7AF090728BFA0E80C5048BF0CC05DF80F
:1008400004EB890028BF40F8042B08BF704748BF5D
:1008500020F8022B11F0804F18BF00F8012B7047D1
:10086000704770477047000000487047505A00209A
:10087000704770477047704738B504460A460020F5
:100880006946AFF30080002808BF38BD02460099D2
:10089000204600F02DFB012038BD012000F03ABCBD
:1008A000F8B5AFF30080054600200C46102000BFCD
:1008B0000646A819A0420DD9324669460020AFF37A
:1008C0000080070008BF00F025FC0098A04218BF78
:1008D0000546C419FFF7C8FF05600746F01D20F064
:1008E00007004619284600F00AF8B44208BFF8BDD0
:1008F000A21B31463868BDE8F84000F0F9BA002183
:100900000160C0E9011070471020704710B500F079
:10091000EBFA006810BD10B5044600F0E5FA04607B
:1009200010BD2DE9F0470D4699469246044600F168
:1009300024080168880604D5E06921F010012160CF
:1009400000E00120A84201DD471B00E00027A1696B
:100950007A1902EB0900081AA0612078C00602D4B7
:100960002046AFF30080002608E0D4E901211AF800
:1009700006009047206A401C761C20624E45F4DB3E
:100980002078C0060AD52046AFF3008006E0D4E9FF
:10099000012130209047206A401C2062381EA7F1B8
:1009A0000107F4DC07E0D4E9012118F805009047BD
:1009B000206A401C2062281EA5F10105F3DC2046B8
:1009C000AFF300802078000602D50220BDE8F08752
:1009D0000120FBE770472DE9FF4F0C461E464FF004
:1009E000FF378BB0D2E90001DDF860800A908A46BB
:1009F000C1F30A5505B93D46002108464FF00000F5
:100A0000BAF1000F00F4400005DA00EB80004FF46B
:100A1000400101EA50004FEA9059B9F1010F00DDA1
:100A2000B9460A9850EA4A000ED044F61050A5F292
:100A3000FF3545432F14B8F1000F1ED07542291E13
:100A40001EDDC9F100021CE0B8F1010F4FF00000FB
:100A500001D0302103E0F24305E02154401CB042B4
:100A6000FBDB30460022002121540B99C1F808809D
:100A7000C1E900200FB0BDE8F08FBD1B6D1CDEE7A3
:100A80004A4600DA694206A800F0D2FA06AB93E8BB
:100A9000070003AB83E8070050460A9900F004FC06
:100AA0008DE80700A0F500501F3800900398002D36
:100AB0000ADD42F21F014A460844002303A90390BD
:100AC000684600F06DFE09E0A0F500504A461F3868
:100AD000002303A90390684600F077FE8DE8070025
:100AE0000004000C03D04FF0FF30410800E0104636
:100AF000B8F1000F03D00022009215461EE0751ECB
:100B000005D400F00FFA303262556D1EF9D5B346A8
:100B10000122084302D000227F1C04E02078302804
:100B200001D100227F1E002A099784D01DE0112DDB
:100B300007DA00F0F7F9303262556D1C50EA010215
:100B4000F5D1084302D00098C8B10EE00021681E1C
:100B500005E0235C625C63542254401E491C8142C0
:100B6000F7DBAB46A81B401E0990002004F80B00E1
:100B70000B98099AC0F80880C0E9002B7AE7112683
:100B80004FF0000857E72DE9F04F88460446D21D84
:100B900022F0070191B0D1E90001CDE90A0105F089
:100BA00003FB02460B98C00F01D02D2007E0206800
:100BB000810701D52B2002E0202101EAC000032A91
:100BC000099001D0072A05DB03464146204600F084
:100BD000EFF90BE12078800601D5E06900E00620FE
:100BE000B8F1650F814606D0B8F1660F18D0B8F19C
:100BF000670F70D131E00020B9F1110F009001DBD7
:100C0000112301E009F101030AAA01A90CA8FFF7C9
:100C1000E2FEDDE90C70002609F10105834647E09C
:100C200001204B4600904FF000470AAA01A90CA8EA
:100C3000FFF7D1FEDDE90DB00C995D46002610B935
:100C400009F101000D18B9EB050003D4C0F1FF361E
:100C500009F10105A5EB09002BE0B9F1010F01DA5B
:100C60004FF001090020B9F1110F0090484601DD55
:100C7000112300E003460AAA01A90CA8FFF7ABFE66
:100C8000DDE90C704D4600268346207800070AD423
:100C9000AB4500DA5D4601A8012D04DD411911F8CC
:100CA000011C302907D04F4502DA17F1040F04DA8E
:100CB000012082460FE06D1EEEE7002F02DCED1BE7
:100CC0003E4403E0781CA84200DD7D1CB81B00F107
:100CD000010A4FF000472078000703D4AA4501DB42
:100CE0004FF0FF3A0021B7F1004F0DF143088DF8A6
:100CF000431024D002202B23002F01DA7F422D2322
:100D00000A21021EA0F1010000DC5FB197FBF1FC9B
:100D100097FBF1F201FB1C7C17460CF1300C08F834
:100D200001CDEEE7A8F1010003702188090501D586
:100D3000452100E06521A0F1010800F8011C099897
:100D40000FA9A1EB0807FF1D00B10120411901EB1C
:100D5000EA70A1693844081A401EA0612078C006D4
:100D600002D42046AFF30080099828B1D4E90121CC
:100D70009047206A401C20622078C00622D5204679
:100D8000AFF300801EE0002E04DBB34502DD01A8B6
:100D9000805D00E03020D4E901219047206A401CAA
:100DA0002062761CAAF101005FEA000A0AD100F075
:100DB00097F8C0680168405CD4E901219047206A37
:100DC000401C2062281EA5F10105DCDC07E0D4E907
:100DD000012118F8010B9047206A401C2062381E40
:100DE000A7F10107F3DC2046AFF30080032011B028
:100DF00041E6000001694A1C02610878704700B5AD
:100E00008FB0CDE901310021059105497944CDE943
:100E1000031011466846FFF709FC0FB000BD000043
:100E2000E5FFFFFF0A6802F8010B0A60704710B582
:100E3000203AC0F00B80B1E81850203AA0E81850D2
:100E4000B1E81850A0E81850BFF4F5AF5FEA027C93
:100E500024BFB1E81850A0E8185044BF18C918C002
:100E6000BDE810405FEA827C24BF51F8043B40F8A3
:100E7000043B08BF7047D20728BF31F8023B48BF88
:100E800011F8012B28BF20F8023B48BF00F8012BC6
:100E900070474FF000020429C0F0128010F0030CDC
:100EA0003FF4B9ACCCF1040CBCF1020F18BF00F850
:100EB000012BA8BF20F8022BA1EB0C01FFF7ABBC64
:100EC0005FEAC17C24BF00F8012B00F8012B48BF6A
:100ED00000F8012B7047000000487047485A002076
:100EE00000487047685A002000487047485A002060
:100EF000034640688C46002818BF88423CBF034622
:100F00004068F8D318681844884207D00CF10300F1
:100F100020F00700001D411A521A0146081D0A6000
:100F2000FFF769BA30B5B0F10A024FEA900E71F1DD
:100F300000034EEA817EB0EB0E0061EB91014FEAB7
:100F4000101E4EEA017E10EB0E0041EB11114FEA2C
:100F5000102E4EEA016E10EB0E0041EB11214FEA0C
:100F6000104E4EEA014E10EB0E0041EB11414018BD
:100F700041F100014FEAD00040EA41704FEAD1014F
:100F800010EB80054FEA810444EA907444EB0104BD
:100F90006D1944EB0404521BA3414FF0000348BFFA
:100FA0000A3200D530BD401C41F1000130BD0000C7
:100FB0002DE9F0411F46044603260168072A01F483
:100FC000006004DB08B116A505E016A503E008B132
:100FD00015A500E015A521F010002060A069C01E35
:100FE000A0610FB1401EA0612046AFF300804FB159
:100FF000D4E9012138469047206A401C2062C01C79
:10100000206206E0206AFAE7D4E9012115F8010B15
:101010009047761EF8D22046AFF30080BDE8F081FD
:101020004E414E006E616E00494E4600696E66008C
:101030002DE9F047814616468AB0354878440DC8F8
:101040008DE80D0032487844801C03AC0DC884E85C
:101050000D0041F69B300844372190FBF1F290FBE4
:10106000F1F5A5F1800501FB12041B3C02D5644299
:10107000012000E00020DFF898A080460027FA4415
:10108000AAF1BE0A0EE0E0070AD03246684607EB36
:10109000470101230AEB810100F097FB8DE807006F
:1010A00064107F1C002CEED1194F7F44AE3F19E035
:1010B000E80715D007EB04100DF1180A90E80E00B0
:1010C0008AE80E00C068F04201D1981908903246B3
:1010D000012306A903A800F078FB03AB83E807000F
:1010E0006D10641C002DE3D14FF0010332466946B8
:1010F000B8F1000F03A802D000F052FB01E000F0AD
:1011000064FBC9E90001C9F808200AB0BDE8F0870E
:101110008CAC000010B500F039F8BDE8104000F0CC
:101120002FB870477546FFF7D7FEAE4605006946F3
:10113000534620F00700854618B020B5FFF71AF98E
:10114000BDE820404FF000064FF000074FF00008C8
:101150004FF0000B21F00701AC46ACE8C009ACE849
:10116000C009ACE8C009ACE8C0098D46704710B5AD
:101170000446AFF300802046BDE81040FFF784B876
:10118000002801D000F06AB87047000010B50128AF
:1011900005D0002103A000F067F8012010BD09A1CF
:1011A000F8E7000053494752544D454D3A204F75DA
:1011B00074206F662068656170206D656D6F72794F
:1011C000000000003A2048656170206D656D6F7207
:1011D0007920636F72727570746564004FF0013C22
:1011E00050F8042B51F8043B9A4221D1A2EB0C0396
:1011F000934313EACC1317D150F8042B51F8043B56
:101200009A4215D1A2EB0C03934313EACC130BD1F2
:1012100050F8042B51F8043B9A4209D1A2EB0C037D
:10122000934313EACC13DBD04FF00000704700BFAC
:10123000D01A01BAB1FA81F101F0180122FA01F0D5
:10124000CB40C1F12001DBB2C0B2C01A2CFA01F3CD
:10125000D11A914311EAC311E6D170470149182010
:10126000ABBEFEE72600020070B505460C460A201C
:1012700000E06D1C00F011F835B128780028F8D195
:1012800002E0641C00F009F814B120780028F8D1BD
:10129000BDE870400A20AFF3008008B569468DF8BC
:1012A00000000320ABBE08BD5FEA400C08BF91F010
:1012B000000F4FEA8C234FEAC12243EA51514FEA13
:1012C0001C5018BF00F5F0404FEA300018BF41F045
:1012D00000415FEA6C5C00F02980BCF1FF3F08BF71
:1012E00040F080407047130C06BF12044FF0100C02
:1012F0004FF0000C130E04BF12020CF1080C130F78
:1013000004BF12010CF1040C930F04BF92000CF106
:10131000020CD30F04BF52000CF1010C11464FF028
:101320000002A0F11F00A0EB0C00704711F0004F6D
:1013300008BF704731F000413FF4D5AF0B0C06BF3A
:1013400009044FF0100C4FF0000C0B0E04BF090203
:101350000CF1080C0B0F04BF09010CF1040C8B0FEE
:1013600004BF89000CF1020CCB0F04BF49000CF143
:10137000010CCCF12003A0EB0C0022FA03F302FADB
:101380000CF241EA030100F10100704720F07F4CAC
:1013900080EA030023F07F47ACEB070303F57C539F
:1013A00000F0004003F1FF032DE980494FEA154B9F
:1013B00009B44FEA144325EA0B4E24EA03480FF21E
:1013C000042606EB132749083E785FEA320203FB46
:1013D0000667C7F5000707FB06F64FEA54374FEAE2
:1013E000D64606F1020607FB066CCCF1005C4FEA1C
:1013F0001C472CEA074C07FB06F40CFB06F504EB34
:1014000015464FEA961634BF00204FF000404FEAD1
:10141000D13706FB07FC4FEA1C4C0CFB0BF7D21B29
:1014200003FB0CF761EB07010CFB0EF7B0EB074079
:1014300072EB17420CFB08F734BFA2EB0742B2EB8A
:10144000074261EB17414FEA0C444FEA910706FB54
:1014500007FC4FEA1C4C0CFB0BF7B0EBC74072EBE0
:10146000573203FB0CF734BFA2EBC742B2EBC742C3
:1014700061EB57310CFB0EF7B0EBC70072EB577204
:101480000CFB08F734BFA2EBC702B2EBC70261EB5B
:101490005771039F4FEA816141EA921104EBCC043A
:1014A0004FEAD1374FEA826206FB07FC42EA90120C
:1014B0004FEA80604FEA1C4C0CFB0BF7D21B03FB7E
:1014C0000CF761EB07010CFB0EF7B0EB074072EB7A
:1014D00017420CFB08F734BFA2EB0742B2EB0742FE
:1014E00061EB17414FEA8C554FEA910704EB9C24BE
:1014F00006FB07FC4FEA1C4C0CFB0BF7B0EBC7409C
:1015000072EB573203FB0CF734BFA2EBC742B2EBCE
:10151000C74261EB57310CFB0EF7B0EBC70072EB23
:1015200057720CFB08F734BFA2EBC702B2EBC7023D
:1015300061EB577115EB4C254FEA816141EA92113D
:101540004FEA82624FEAD13742EA901206FB07FC6B
:1015500044F100044FEA80604FEA1C4C0CFB0BF78F
:10156000D21B03FB0CF761EB07010CFB0EF7B0EB92
:10157000074072EB17420CFB08F734BFA2EB07429F
:10158000B2EB074261EB174115EB1C154FEA8131B5
:1015900041EA92414FEA823242EA90424FEA803079
:1015A0004FEA0C7644F1000448EA03434EEA0B4844
:1015B0004FF0000EB2EB080C71EB030724BF62463C
:1015C00039464EEB0E0E4FF0000B001852414941C8
:1015D0004BEB0B0BB2EB080C71EB03077BF1000B31
:1015E00024BF624639464EEB0E0E4FF0000B00183A
:1015F000524149414BEB0B0BB2EB080C71EB03076B
:101600007BF1000B24BF624639464EEB0E0E51EAC9
:10161000020718BF46F0010616EB0E7655F10002E0
:1016200054F1000103D5BDE88901BDE80088BDE89B
:101630008901BDE80048B619524141EB0101A3F10F
:101640000103704780807F7E7D7C7B7A7978777616
:1016500076757473727171706F6E6E6D6C6C6B6A8F
:101660006A6968686766666564646363626161602D
:10167000605F5F5E5E5D5D5C5C5B5B5A5A595958AA
:101680005857575656555555545453535252525114
:10169000515050504F4F4F4E4E4D4D4D4C4C4C4B6A
:1016A0004B4B4A4A4A4949494848484747474746B1
:1016B00046464545454444444443434343424242ED
:1016C00042414141002B9C4630D477002BD01CB5C1
:1016D0004FEA370703B44FF010004FF01001BAF192
:1016E000000F06D0BCF1000FDCBF40F0080040F056
:1016F00008014FF000000FBCBDE810400BF1010BDA
:10170000BBF1010F08BF5FEA170722BF12F1010208
:1017100011F101014FF0004143F1000300F00040DE
:1017200043EA00007047F9D35708D0E746EA064677
:1017300013F1400F4FEA16461FDD13F1200FDFBFF4
:1017400016430A46002120335B42BED0C3F1200776
:1017500046EA064602FA07F74FEA164646EA070641
:10176000C3F1200722FA03F201FA07F721FA03F185
:101770004FF0000342EA0702A7E746EA020646EAFC
:1017800006464FEA164646EA0106BCBF46EA06464A
:10179000360C4FF000034FF000024FF0000194E7C9
:1017A0002DE9804C9A46934670B491E8380007C8FA
:1017B00031EA400C48BF34EA430C03D5FFF7E6FD9D
:1017C000FFF780FFF0BCBDE8008C2DE9804C9A4605
:1017D000934670B491E8380007C810F0804F08BFF6
:1017E00013F0804F03D100F005F8FFF76BFFF0BC5A
:1017F000BDE8008C20F07F4780EA030023F07F4C97
:1018000007EB0C03A3F57C5300F00040A3F1FE03AB
:1018100092F0000F00F0B38095F0000F00F0778099
:101820002DE901494FEA11404FEA144621EA0048E8
:1018300000FB06FC24EA064708FB06F607FB08F84F
:1018400000FB07F718EB06484CEB164C4FEA124B1F
:1018500018EB07484FEA15464CEB174022EA0B4EAF
:101860000BFB06FC25EA06470EFB06F607FB0EFE01
:101870000BFB07F71EEB064E4CEB164C4FF0000629
:101880001EEB074E4CEB174B18EB0B0840F100001A
:1018900018EB0E0B58EB000840F100008F1A4FF0C8
:1018A00000013CBFC943661B14BFB5EB040C00210B
:1018B0003CBFC943F61B4FEA17444EEA8E0E27EA97
:1018C00004454FEA1C4704FB07622CEA074C05FB62
:1018D00007F70CFB05F604FB0CFC16EB074642EB86
:1018E000174216EB0C4642EB1C421BEB060658EB6C
:1018F0000202414146EA9E0601D5BDE80189B619BA
:10190000524141EB0101A3F10103BDE801894FEA16
:1019100014454FEA114724EA054621EA074C05FB26
:1019200007F406FB07F70CFB06F105FB0CFC11EBBB
:10193000074144EB17444FEA124711EB0C4144EBCB
:101940001C4422EA074C05FB07F206FB07F70CFBD9
:1019500006F605FB0CFC16EB074642EB174216EBAE
:101960000C4642EB1C456A1854F1000148BF704711
:10197000B619524141EB0101A3F10103704795F003
:10198000000F37D04FEA11424FEA144721EA0246CE
:1019900024EA074C02FB07F106FB07F70CFB06F4F1
:1019A00002FB0CFC14EB074441EB17414FEA1547CF
:1019B00014EB0C4441EB1C4125EA074C02FB07F5F4
:1019C00006FB07F70CFB06F602FB0CFC16EB0746C2
:1019D00045EB174516EB0C4645EB1C42121951F12D
:1019E000000148BF7047B619524141EB0101A3F114
:1019F000010370474FEA14454FEA114724EA0546B0
:101A000021EA074C05FB07F106FB07F70CFB06F282
:101A10004FF0000605FB0CFC12EB074241EB1741AF
:101A200012EB0C4251EB1C4148BF7047921841EB3E
:101A30000101A3F101037047FEE70000014800F037
:101A400015BA00006C100020014800F00FBA000029
:101A5000CC10002001681823CAB2103AB2FBF3F28E
:101A6000054B6FF30901032A9B5CC36500D9091D6F
:101A7000816508467047000058BA000810B5014655
:101A800000208B698A6A4FF0C07453B1B3F5005FD0
:101A900015D072B1012A0CD0022A0AD0032A09D12A
:101AA00004E01AB1012A06D0022A03D1C96AC90189
:101AB00000D5012010BDC96AA142FAD010BD002A8C
:101AC000F7D0012AF2D0022AF3D0032AF3D010BDB6
:101AD00030B50468256825F48025256004686360B6
:101AE0008368402B036803D099600068C26030BDF2
:101AF0009A600068C16030BD704772B6FEE70000B2
:101B00002DED088B98B000220C210A2008F013FA62
:101B1000814C6067C8B10C228049814802F096F977
:101B20009FED80AB9FED81BB82484FF0FF31006895
:101B300008F046FCDFF8E0910A2212A9D9F87400F7
:101B400008F0A2FB01280FD027E07BA18248FEF716
:101B5000F1FC8148FEF7F1FD82B24FF47A737E49C1
:101B60006F4802F0AAF9FEE712A96C4891EC030A4B
:101B7000783802F0C4FF694891EC030A3C3802F05F
:101B8000BEFF664891EC030AF03802F0B8FF6348E4
:101B900091EC030AB43802F0B2FF70485E490A22A1
:101BA0008031006808F070FB17906D485B490A228D
:101BB0000C31006808F068FB16906A4857490A2201
:101BC0001831006808F060FB1590674852490A22F6
:101BD0007831006808F058FBDFF840810190A8F1E7
:101BE0007808D8F8080009F0F5FD06460F46D8F841
:101BF000040009F0EFFD04460D46D8F8000009F096
:101C0000E9FDCDE9060108F19000D0ED028A4248D5
:101C100090ED048A28EE880A10EE100A09F0DAFD29
:101C2000CDE9040118EE900A09F0D4FDCDE90201D6
:101C300018EE100A09F0CEFD41EC190B08F18400F2
:101C4000806809F0C7FD53EC1A2B08F04DFF53ECE8
:101C50001B2B09F0D5FC53EC192B09F01DFA824619
:101C600008F184008B4690ED010A20EE080A10EE80
:101C7000100A09F0AFFD8046284889460C3090EDE7
:101C8000000A20EE080A10EE100A09F0A3FD0A4629
:101C90000EA981E8F000DDE90634CDE90C34DDE978
:101CA0000434CDE90A34DDE9023402A981E8050FE4
:101CB0001948CDE90834806F009017482BA1803077
:101CC000B0F90230B0F900202348FEF733FC224877
:101CD000FEF733FD82B22049114802F03FF9169811
:101CE00001280ED1179801280BD10198012808D19D
:101CF0001598012805D106F017FB06F027F905F025
:101D0000DFFD274800231A461946006808F0ACF9A1
:101D10000A2007F047FF07E748000020A80C002032
:101D20002410002011363CBD529623409A9999996F
:101D30009999B93FF0000020636F6D6D616E645139
:101D40007565756520E5889DE5A78BE58C96E5A40E
:101D5000B1E8B4A55C6E0000B8090020F8000020CE
:101D6000FC000020000100200401002025642C2537
:101D7000642C25642C252E32662C252E32662C25CB
:101D80002E32662C252E32662C252E32662C252EE0
:101D900032662C252E32662C252E32660A00000073
:101DA000E800002002484FF0FF31006908F008BB4E
:101DB000F80000202DE9F0410446876D00F0DCFAC0
:101DC000064694F835000025022806D0802060657C
:101DD00084F834500120BDE8F0812068016821F0CA
:101DE000160101602068416921F080014161206C89
:101DF00008B9A06C20B12068016821F008010160D9
:101E00002068016821F0010101600CE000F0B4FAE3
:101E1000801B052807D920206065032084F8350041
:101E200084F83450D7E720680068C007EED194F8F2
:101E30005C103F208840B860012084F8350084F8A9
:101E400034500020C7E790F83510022903D08021D4
:101E5000416501207047052180F835100068016850
:101E600021F0010101600020704700002DE9F843D6
:101E700004464FF00009CDF8009063484FF4165126
:101E8000A56D0068B0FBF1F72E6894F85C1008208F
:101E900000FA01F131420FD021680A6852070BD5D0
:101EA0000A6822F004020A6094F85C108840A86076
:101EB000606D40F00100606594F85C104FF001081F
:101EC00008FA01F0304208D021684969090604D5B2
:101ED000A860606D40F00200606594F85C1004201A
:101EE0008840304208D021680968890704D5A86075
:101EF000606D40F00400606594F85C10102088402C
:101F0000304218D021680968090714D5A8602068F4
:101F10000168490304D50068000308D5A16C07E0F7
:101F20000168C90503D4016821F008010160216C32
:101F300009B12046884794F85C1020208840304240
:101F400031D021680968C9062DD5A86094F83500FC
:101F500005282068016806D0490347D500680003BA
:101F60001DD4616C1CE021F01601016020684169FC
:101F700021F080014161206C08B9A06C20B120687B
:101F8000016821F00801016094F85C103F2088404E
:101F9000A86084F8358084F83490216D1FE0E16BEF
:101FA00009B120468847606D00282BD0606DC007BE
:101FB00014D0052084F835002068016821F0010163
:101FC00001600098401C0090B84203D82068006867
:101FD000C007F6D184F8358084F83490E16C00298C
:101FE00010D001B02046BDE8F04308470168C9059C
:101FF000D5D4016821F01001016084F8358084F89F
:102000003490CCE7BDE8F8831C0100202DE9F041B5
:10201000044600F0B1F906465CB1022084F83500B0
:10202000002584F834502068016821F00101016026
:102030000DE00120BDE8F08100F09EF9801B05282D
:1020400005D920206065032084F83500F2E7206878
:102050000068C007F0D12268116820480140D4E927
:1020600001031843D4E90336334318436369184323
:10207000A3691843E3691843236A18430843616A54
:10208000042903D1D4E90B131943084310602068D5
:102090004069666A20F0070130460E430127042894
:1020A0000CD1A06A0643E06A40B12046FFF7E6FC87
:1020B00020B14020606584F83570BAE72068466139
:1020C0002046FFF7C7FC94F85C203F2191408160D7
:1020D000656584F835700020ACE700003F8010F0A3
:1020E0002DE9F0410446866D90F834000025012862
:1020F0000DD0012084F8340094F835700020012FB1
:1021000007D084F8340002252846BDE8F08102207B
:10211000FBE7022784F8357060652046FFF7D8FC9E
:1021200094F85C103F208840B0602068016841F05E
:1021300016010160206C20B12068016841F008019F
:1021400001602068016841F001010160DCE70000E6
:1021500070B5044600F010F90546601C02D0044832
:102160000078044400F008F9401BA042FAD370BD87
:10217000100100202DE9F84FDFF8BCA10022012555
:1021800003264FF00F090AF1040BAAF1040E00BF59
:102190000B6805FA02F42340A34270D10F7907F0CF
:1021A0000307012F01D0022F16D187684FEA42089A
:1021B00006FA08FC27EA0C07D1F80CC00CFA08FC58
:1021C0004CEA070CC0F808C04768A7430C79C4F371
:1021D000001494403C4344600C79E443A4070AD0C3
:1021E000C4684FEA420C06FA0CF7BC438F6807FA42
:1021F0000CF72743C7600C7904F00304022C12D1BA
:10220000D40800EB840CDCF820405707FF0E09FAD5
:1022100007F824EA0804D1F8108008FA07F848EA19
:102220000408CCF8208004684FEA420C06FA0CF748
:10223000BC430F7907F0030707FA0CF72743076041
:102240004C6814F4403F70D03C4C276847F48047FA
:102250002760246822F0030704F480440094384C7B
:1022600007EB040CDCF8084897074FEA177809FADF
:1022700008F7BC43334FB84202D1002724E054E0B2
:10228000314FB84201D101271EE0304FB84201D191
:10229000022719E02E4FB84201D1032714E02D4F39
:1022A000B84201D104270FE02B4FB84201D10527D6
:1022B0000AE02A4FB84201D1062705E0284FB8426C
:1022C00001D1072700E0082707FA08F72743CCF8D1
:1022D0000878DAF800405746D1F804C09C435FEA1A
:1022E000CC2C00D51C433C60DBF800405F46D1F8A5
:1022F00004C09C435FEA8C2C00D51C433C60DEF894
:1023000000407746D1F804C09C435FEA8C3C00D57E
:102310001C433C60084F083F3C68D1F804C09C4314
:102320005FEACC3C00D51C433C60521C102AFFF4F1
:102330002FAFBDE8F88F0000083C01404438024050
:10234000003001400000024000040240000802404A
:10235000000C02400010024000140240001802402D
:10236000001C02400069084000D0012070470AB1FB
:10237000816170470904FBE70148806870470000ED
:102380001001002090F83D007047000070B5040077
:1023900025D094F83D00002520B984F83C50204613
:1023A00000F052FA242084F83D002068016821F0F2
:1023B000010101602068016841F40041016020686A
:1023C000016821F40041016000F018FC4D4A616889
:1023D000914201D84C4900E04C49884201D2012089
:1023E00070BD4B492368B0FBF1F15E6826F03F06F3
:1023F0000E435E606368934206D94FF49673594367
:102400004FF47A73B1FBF3F12368491C1E6A26F07E
:102410003F06314319626168914210D84900401E5D
:10242000B0FBF1F2521CC2F30B02042A01D20420C9
:1024300022E0B0FBF1F0401CC0F30B001CE0A268EE
:10244000F2B301EBC10303EB0116431EB3FBF6F33A
:102450005B1C43F480431B0549D092B301EBC102DE
:1024600002EB0111401EB0FBF1F0401CC0F30B0069
:1024700040F4804040F400402168CA694CF6FF7384
:102480009A431043C861D4E90710014320680268E9
:1024900022F0C00211430160D4E903010143206826
:1024A000826848F2FF339A4311438160D4E9050101
:1024B00008432168CA6822F0FF021043C86001E0A7
:1024C0000EE016E02068016841F00101016025641A
:1024D000202084F83D00256384F83E50002070BD24
:1024E00001EB4106431EB3FBF6F35B1CB3E701208F
:1024F000C2E701EB4101401EB0FBF1F0401CC0F30C
:102500000B00B7E7A086010080841E0000093D0093
:1025100040420F002DE9FF4F83B09A46DDE9118755
:1025200093460446DDF84090FFF726FF054694F8F1
:102530003D00202870D119230122744920460095BE
:1025400001F060FE0028F5D194F83C00012863D02A
:10255000012084F83C0020680168C90703D10168A4
:1025600041F0010101602068016821F4006101600F
:10257000222084F83D00402084F83E000026266496
:10258000C4F82490A4F82A80608D20856048E06219
:10259000CDE9007553465A462046049901F034FDB2
:1025A000002879D1208DD0B1012821D002282068BF
:1025B00024D0416980690090208D032866D80128C5
:1025C0002BD0544902283B464FF00002009557D0CB
:1025D0008846204601F016FE00285DD13AE02068CA
:1025E000416981690091016841F4007101607DE0F9
:1025F0002068016821F480610160F0E7016821F43E
:10260000806101602068016841F400610160206818
:1026100041698069009069E075E02A4639462046A4
:1026200001F096FE88BB54E02068016841F4007117
:10263000016020680069616A0870606A401C60621D
:10264000218D491E2185618D491E61852168096999
:10265000017042E02068016821F480610160206817
:102660000069616A0870606A401C6062208D401ECB
:102670002085608D401E60853B46002241460095C6
:10268000204601F0BFFD00B9CEE705E02A463946F5
:10269000204601F05DFE18B1012007B0BDE8F08FC3
:1026A00020680069616A0870606A401C6062208D61
:1026B000401E81B22185608D401E60852068426980
:1026C000D243520712D4032903D1016821F4806157
:1026D000016020680069616A0870606A401C60627D
:1026E000208D401E2085608D401E6085208D002835
:1026F0007FF462AF202084F83D0084F83E6084F8C7
:102700003C600020C9E70220C7E70000020010007B
:102710000000FFFF040001002DE9FF4F83B09A463F
:10272000DDE9119793460446DDF84080FFF724FE6B
:10273000054694F83D0020287FD119230122404905
:102740002046009501F05EFD002876D194F83C000B
:10275000012872D0012084F83C0020680168C90774
:1027600003D1016841F0010101602068016821F492
:1027700000610160212084F83D00402084F83E0083
:1027800000262664C4F82480A4F82A90608D208551
:102790002C48E062CDE9007553465A46204604991C
:1027A00001F0B0FC70B930E02A463946204601F00D
:1027B00007FE58B1206C042804D12068016841F458
:1027C00000710160012007B0BDE8F08F606A2168E8
:1027D00000780861606A401C6062218D491E89B2E0
:1027E0002185628D521E628522685369DB435B0737
:1027F0000BD469B100781061606A401C6062208D62
:10280000401E2085608D401E6085208D0028CBD124
:102810002A463946204601F0C9FC0028CAD154F89E
:102820003D0B016841F400710160202004F81E098D
:10283000E67766770020C6E7FFE70220C3E70000DF
:10284000020010000000FFFFF0B587B0044614211D
:102850006846FDF7DEFF2768234CDFF888C00022BA
:10286000214912230325042620481034674518D136
:102870000F6847F002070F60096802AF01F002011C
:1028800005915901CDE9001387E864006946FFF717
:1028900071FC206840F400102060206800F40010F3
:1028A0001CE0DFF84CC0674519D10F6847F00207FC
:1028B0000F60096802AF01F0020105914FF4406119
:1028C000CDE9001387E864006946FFF753FC2068F0
:1028D00040F480002060206800F48000059007B07C
:1028E000F0BD0000005400403038024000040240B7
:1028F00000580040024881680278114481607047A6
:10290000100100200B4810B5016841F4007101600E
:10291000016841F480610160016841F480710160E7
:10292000032000F09FF80F2000F006F800F050F8A8
:10293000002010BD003C024030B505461F4887B05E
:102940000024016841F004010160006806A900F05C
:102950000400009001A800F031F90498A8B100F03B
:102960004DF940001649174AB0FBF1F11648491ECF
:10297000026040F2E732C0E90324C0E90114846137
:1029800000F0CEFD040003D015E000F037F9E9E7D0
:102990000D4800F005FE04000DD11E2000F034F8B3
:1029A000102D07D2002229461E2000F03BF80748D0
:1029B000056000E0012407B0204630BD40380240E9
:1029C00040420F00000800402C110020140100209C
:1029D0000C4882B0016841F480410160006800F455
:1029E000804000900748001F016841F0805101605D
:1029F0000068002200F0805000900F21901E02B06D
:102A000000F010B844380240002809DB00F01F0233
:102A1000012191404009800000F1E020C0F8001140
:102A200070470000F0B40E4B1B680C46C3F3022342
:102A3000C3F10705042D00D90425191D072901D26A
:102A4000002300E0DB1E012606FA05F1491E2140A5
:102A500099409E40761E16403143F0BC03F0BCBB4B
:102A60000CED00E0064900F0070208684FF6FF038E
:102A7000184040EA0220034A1043086070470000F3
:102A80000CED00E00000FA052DE9F0470E460500C8
:102A900065D0DFF81481D8F80000F7B200F0070025
:102AA000B04207D288F80070D8F8000000F00700A4
:102AB000B04254D128683D4C810712D5400703D558
:102AC000206840F4E05020602878000703D5206893
:102AD00040F4604020602068A96820F0F0000843BE
:102AE00020602878C0072DD030496868083901284F
:102AF00012D0022813D0032811D0096889070029B1
:102B00002DDA216821F0030101432160FFF734FC35
:102B1000814641F2883A0EE009688903EFE70968C7
:102B20008901ECE7FFF728FCA0EB0901514502D928
:102B30000320BDE8F0872068696800F00C00B0EB66
:102B4000810FEFD1D8F80010404601F00701B142E3
:102B500007D90770006800F00700B04201D00120DB
:102B6000E7E72878400705D52068E96820F4E050B9
:102B7000084320602878000706D52068296920F4DA
:102B8000604040EAC100206000F058F82168084A1F
:102B9000C1F30311515CC84006490860064800684B
:102BA000FFF7CAFE0020C4E7003C0240083802409C
:102BB00060BA00081C010020140100200F220260EE
:102BC0000C4A136803F003034360136803F0F00337
:102BD0008360136803F4E053C36012684FF4E0535A
:102BE00003EAD20202610448006800F007000860AE
:102BF0007047000008380240003C02400448054984
:102C000000680968044AC1F38221515CC8407047DA
:102C10001C0100200838024070BA00080448054929
:102C200000680968044AC1F34231515CC8407047EA
:102C30001C0100200838024070BA0008154810B581
:102C4000006810F00C02144813D01449042A0FD065
:102C5000082A0ED10F4C241F2268236802F03F027D
:102C60005B0207D52068C0F38810A0FB010106E0D5
:102C7000084610BD2168C1F38811A1FB00010023A3
:102C8000FDF7E0FB2168C1F30141491C4900B0FB9D
:102C9000F1F010BD083802400024F40040787D01B6
:102CA0002DE9F84F04006ED02078DFF84C93C00770
:102CB000A9F104054AD009F104000168C1F38101BA
:102CC000012908D00068C0F3810002280AD1D9F890
:102CD0000000400206D52868800337D560680028C8
:102CE000E1D033E06068B0F5803F10D0B0F5A02FA0
:102CF000286810D020F480302860286820F48020D4
:102D000028606068A8B1FFF737FB06460DE0286829
:102D100040F48030F4E740F480202860F7E700BFFB
:102D2000FFF72AFB801B642873D828688003F7D537
:102D30000CE0FFF721FB064605E000BFFFF71CFB98
:102D4000801B6428F0D828688003F7D42078DFF847
:102D5000AC8280074FF0000A3ED5A748001D0168ED
:102D600011F00C0F08D00068C0F3810002280BD1CD
:102D7000D9F80000400207D42868800716D5E0681B
:102D8000012800D112E033E1E068B8B10120C8F8B1
:102D90000000FFF7F1FA064605E000BFFFF7ECFA86
:102DA000801B0228C0D828688007F7D528682169C9
:102DB00020F0F80040EAC10028600DE0C8F800A04B
:102DC000FFF7DAFA064604E0FFF7D6FA801B02287E
:102DD0001FD828688007F7D42078000722D5864FAF
:102DE00087486169703771B101210160FFF7C4FA4A
:102DF000064604E0FFF7C0FA801B022809D83868AD
:102E00008007F7D50EE0C0F800A0FFF7B5FA064638
:102E100005E082E0FFF7B0FA801B02287DD8386811
:102E20008007F7D42078400768D5DFF8CCB10027B9
:102E30000BF13C0BDBF80000C0000BD4DBF80010FA
:102E400041F08051CBF80010DBF80000012700F0C2
:102E5000805000906B4E3068C00510D4306840F44C
:102E600080703060FFF788FA009005E0FFF784FA81
:102E70000099401A022850D83068C005F6D55E4E39
:102E8000A0686C3601280FD00528306810D020F0DB
:102E900001003060306820F004003060A068B8B1F4
:102EA000FFF76AFA00900FE0306840F00100F4E7A5
:102EB00040F004003060F7E7FFF75EFA0099411A2E
:102EC00041F28830814266D830688007F4D50EE040
:102ED000FFF752FA009007E0FFF74EFA0099411A07
:102EE00041F28830814256D830688007F4D42FB13F
:102EF000DBF8001021F08051CBF80010A069C8B3B6
:102F00003D49091D0968C1F3810102294AD00228FF
:102F1000504607D0C8F8600000E03CE0FFF72CFA0C
:102F200004463BE04746C8F86000FFF725FA06462E
:102F300005E000BFFFF720FA801B02282BD8286885
:102F40008001F7D4D4E907010843A16A2E4A490851
:102F500002EB0141626A41EA8211084394F82C10A5
:102F600040EA0161C9F8001001203866FFF704FA51
:102F7000044606E03EE000BFFFF7FEF9001B022812
:102F800009D828688001F7D534E000BFFFF7F4F9CD
:102F9000001B022802D90320BDE8F88F28688001B1
:102FA000F4D427E00128F7D0D9F80000E26900F452
:102FB000800191421CD1226A00F03F01914217D159
:102FC00047F6C071626A0140B1EB821F10D1A26A5C
:102FD0004FF0FF3300F4403103EB5202B1EB024FEC
:102FE00006D194F82C1000F07060B0EB016F01D0A6
:102FF0000120D1E70020CFE704380240000047421B
:10300000800E4742007000400000FFFF70B50400D2
:1030100009D0606A002540B125616561A56294F818
:10302000510040B10CE0012070BD6068B0F5827FB6
:10303000F4D0E561F2E784F85050204600F044F8FF
:10304000022084F851002068016821F040010160ED
:10305000A088218900F4827001F404410843A18909
:1030600001F400610843217C01F002010843217D45
:1030700001F001010843218B01F400710843217F15
:1030800001F03801084394F8201001F08001084352
:10309000218D01F40051084321680860A0690421D2
:1030A00001EA104094F8241001F01001084321684F
:1030B00048602068C16921F40061C1616565012033
:1030C00084F85100002070BD10B586B0044614216C
:1030D0006846FDF79EFB13492068884220D11248BC
:1030E0000021026842F480520260006800F48050BF
:1030F00005900D481438026842F001020260006831
:1031000000F001000590E02000900220CDE90101CF
:10311000032003900520049069460448FFF72AF82D
:1031200006B010BD003001404438024000000240AB
:103130002DE9F84F044690F85000002698461546B1
:103140008A4601280CD0012784F85070FFF714F943
:10315000814694F85100B346012804D002269AE033
:103160000220BDE8F88FBAF1000F6FD0002D6DD0AE
:10317000032084F85100C4F854B0C4F830A0A586E8
:10318000E586C4F838B0A4F83CB0A4F83EB0C4F862
:1031900044B0C4F840B0A068B0F5004F09D1206831
:1031A000016821F0400101602068016841F480411C
:1031B000016020680168490603D4016841F04001BC
:1031C0000160E068B0F5006F606803D058B3012D6E
:1031D00029D049E008B1012D1FD1206B216800885A
:1031E000C86006E020688168890709D5216B0988D5
:1031F000C160206B801C2063E08E401EE0860CE0E6
:10320000FFF7BAF8A0EB0901414503D3B8F1FF3F3E
:1032100003D006E0B8F1000F03D0E08E0028E1D122
:1032200025E0032635E0206B21680078087306E06E
:103230002068816889070AD5216B09780173206BA2
:10324000401C2063E08E401EE0860DE01FE0FFF78B
:1032500093F8A0EB0901414503D3B8F1FF3F03D038
:10326000DFE7B8F1000FDCD0E08E0028E0D14A465D
:103270004146204601F05AFD08B120206065A06853
:1032800018B92068C16880680090606D08B1012697
:1032900001E084F8517084F850B0304661E72DE9C0
:1032A000FF4F81B0044690F8500000260E9F1D4647
:1032B00093464FF0010901280FD04FF0010A84F81E
:1032C00050A0FFF759F8804694F851006168012832
:1032D0000DD0B1F5827F08D103E0022005B0BDE832
:1032E000F08FA16809B9042801D00226C9E002982C
:1032F000002865D0BBF1000FFBD0002DF9D094F869
:103300005100042802D0052084F851000020606597
:10331000C4F838B0E587A58702992163E586A586BC
:103320002064606420680168490603D4016841F0A4
:1033300040010160E068B0F5006F606803D0F0B351
:10334000012D47D081E008B1012D3CD1206B2168CF
:103350000088C860206B801C2063E08E401EE086E1
:1033600031E02068816889070FD5E18E69B1B9F134
:10337000010F0AD1216B0988C160206B801C20637A
:10338000E08E401EE0864FF0000920688168C90782
:103390000CD0E18F51B1C068A16B0880A06B801C7C
:1033A000A063E08F401EE0874FF00109FEF7E4FFC5
:1033B000A0EB0800B84206D3781C04D001E009E075
:1033C0005BE003265BE0E08E0028CAD1E08F002896
:1033D000C7D140E0206B216800780873206B401C47
:1033E0002063E08E401EE0862FE020688168890718
:1033F0000FD5E18E69B1B9F1010F0AD1216B0978BE
:103400000173206B401C2063E08E401EE0864FF06D
:10341000000920688168C9070CD0E18F51B1C068EC
:10342000A16B0870A06B401CA063E08F401EE0877A
:103430004FF00109FEF7A0FFA0EB0800B84202D34D
:10344000781C02D0BAE7002FB8D0E08E0028CCD18B
:10345000E08F0028C9D142463946204601F066FC7B
:1034600018B10126202060650BE0A06818B920681B
:10347000C16880680090606D08B1012601E084F8A1
:1034800051A0002084F85000304627E7704770476D
:1034900070B590F83C20012A32D0012480F83C40DD
:1034A000022280F83D2003685A689D6822F0700669
:1034B0000A6832435A60134B02689A4214D0B2F140
:1034C000804F11D0104B9A420ED0104B9A420BD025
:1034D0000F4B9A4208D00F4B9A4205D00E4B9A429E
:1034E00002D00E4B9A4204D1496825F0800319435B
:1034F000916080F83D40002180F83C10084670BD86
:10350000022070BD0000014000040040000800409F
:10351000000C004000040140004001400018004041
:1035200010B5040003D094F83D0010B107E001206D
:1035300010BD002084F83C00204600F01FF8022057
:1035400084F83D00211D206801F0ECFC012084F886
:10355000460084F83E0084F83F0084F8400084F878
:10356000410084F8420084F8430084F8440084F861
:10357000450084F83D00002010BD000008B500683B
:10358000B0F1804F08D10548016841F001010160A8
:10359000006800F00100009008BD000040380240C3
:1035A00090F83D10012901D001207047022180F8D8
:1035B0003D100168CA6842F00102CA600068114902
:1035C000884214D0B0F1804F11D00F4988420ED0FC
:1035D0000E4988420BD00E49884208D00D498842D6
:1035E00005D00D49884202D00C49884204D1816837
:1035F00001F00701062903D0016841F001010160D3
:103600000020704700000140000400400008004016
:10361000000C004000040140004001400018004040
:1036200070B5044690F83C000025012817D001260B
:1036300084F83C60022084F83D002068826822F013
:10364000770222F47F4282600868502838D00DDC6F
:1036500020284FD005DC90B3102811D14AE0022079
:1036600070BD302846D040280AD13BE060282FD0DA
:1036700070280DD0B0F5805F03D0B0F5005F12D098
:10368000012584F83D60002084F83C00284670BD88
:10369000CB68D1E90121206801F0BDFC2068816878
:1036A00041F0770109E0CB68D1E90121206801F000
:1036B000B2FC2068816841F480418160E1E719E053
:1036C000CA684968206801F07BFD5021206806E047
:1036D000CA684968206801F084FD6021206801F013
:1036E000A4FCCEE7CA684968206801F069FD402162
:1036F0002068F4E7226801461046F0E770472DE99C
:10370000F04104460068C66805694FF00007A90744
:1037100013D5B10711D5F91E01610120207720686A
:1037200080698007204602D0FFF7E8FF04E000F040
:10373000A7F8204600F039F92777680716D57007F3
:1037400014D521686FF004000861022020772068FA
:10375000806910F4407F204602D0FFF7CFFF04E0DD
:1037600000F08EF8204600F020F92777280715D5BD
:10377000300713D521686FF0080008610420207716
:103780002068C0698007204602D0FFF7B7FF04E039
:1037900000F076F8204600F008F92777E80616D5FD
:1037A000F00614D521686FF010000861082020771A
:1037B0002068C06910F4407F204602D0FFF79EFFCA
:1037C00004E000F05DF8204600F0EFF82777E80706
:1037D00008D0F00706D021686FF00100086120468C
:1037E00000F048F9280608D5300606D521686FF0A4
:1037F000800008612046FFF749FE680608D570067C
:1038000006D521686FF040000861204600F03CF9C1
:10381000A8060AD5B00608D521686FF02000086117
:103820002046BDE8F041FFF732BEBDE8F081000060
:1038300010B586B0044614216846FCF7EAFF2068FC
:10384000B0F1804F15D10C480021026842F001020E
:103850000260006800F0010005900F200090022037
:10386000CDE901010120CDE9031069460348FEF7C7
:1038700081FC06B010BD000030380240000002405C
:10388000704770B5044690F83C0000260D460128AC
:103890000FD0012084F83C006AB1042A1DD0082A08
:1038A0002FD00C2A3FD00126002084F83C0030465F
:1038B00070BD022070BD206801F0C0FB20688169E6
:1038C00041F0080181612068816921F00401816172
:1038D000206881692A69114311E0206801F0DEFB4C
:1038E0002068816941F4006181612068816921F467
:1038F00080618161206881692A6941EA02218161D0
:10390000D2E7206801F000FC2068C16941F008019D
:10391000C1612068C16921F00401C1612068C169E9
:103920002A69114311E0206801F022FC2068C16976
:1039300041F40061C1612068C16921F48061C16105
:103940002068C1692A6941EA0221C161ACE710B56A
:10395000040003D094F83D0010B107E0012010BD31
:10396000002084F83C00204600F01EF8022084F875
:103970003D00211D206801F0D5FA012084F84600A1
:1039800084F83E0084F83F0084F8400084F8410049
:1039900084F8420084F8430084F8440084F8450029
:1039A00084F83D00002010BD7047704710B50446F4
:1039B000022249B104290ED0082913D094F84100FD
:1039C000012816D0012010BD94F83E000128F9D13D
:1039D00084F83E200FE094F83F000128F2D184F8EB
:1039E0003F2008E094F840000128EBD184F8402003
:1039F00001E084F841200122206801F0FFFA164915
:103A00002068164A884201D0904203D1436C43F4A7
:103A1000004343642068884213D0B0F1804F10D037
:103A20000F4988420DD00F4988420AD00E4988427A
:103A300007D0904205D00D49884202D00C498842F7
:103A400004D1816801F00701062903D0016841F023
:103A500001010160002010BD000001400004014090
:103A60000004004000080040000C004000400140FD
:103A70000018004000680349884201D1FEF73ABFB0
:103A80007047000000080040704770477047000012
:103A9000F8B5016804460868CA684B6910F00F0F52
:103AA0004FF0000559D003F0010602F49077374338
:103AB00065D0C10705D0D10503D5616C41F0010186
:103AC0006164410705D5D90703D0616C41F002015B
:103AD0006164810705D5D90703D0616C41F0040109
:103AE0006164010707D502F02001314303D0616C06
:103AF00041F008016164616C00293AD0800604D568
:103B0000900602D5204601F0DFFC20684069616C18
:103B1000C0F38010090700D460B3204601F09FFC79
:103B200020684069400621D52068143050E8001F05
:103B300021F0400140E80012002AF5D1E06BA8B165
:103B40006E490165E06BFEF77EF9002811D0E06B4D
:103B5000016D01B0BDE8F040084783060FD593061C
:103B60000DD52046BDE8F84001F0AEBC2046FFF779
:103B70008DFFF8BD2046FFF789FF6564F8BD266B11
:103B80002023012E7DD1C6067BD5D60679D50868BF
:103B90004868009048694FF00206400641D5E16B45
:103BA000086840680004000CE8D0A28D8242E5D984
:103BB000E085C869B0F5807F2DD020680C3050E8D2
:103BC000001F21F4807140E80012002AF5D120681E
:103BD000143050E8001F21F0010140E80012002AD3
:103BE000F5D12068143050E8001F21F0400140E872
:103BF0000012002AF5D184F84230256320680C3089
:103C000050E8001F21F0100140E80012002AF5D111
:103C1000E06BFEF7CFF86663A08DE18D401A81B2AC
:103C20002AE0A08DE18D401A81B2E08D0028A5D058
:103C30000029A3D022680C3252E8000F20F49070C3
:103C400042E80007002FF5D12068143050E8002F1B
:103C500022F0010240E80027002FF5D184F842301D
:103C6000256320680C3050E8002F22F0100240E855
:103C70000023002BF5D166632046FFF706FFF8BD51
:103C8000FFE705062BD5150629D594F84100212814
:103C9000F5D1A068B0F5805F01D12069B0B1206A8C
:103CA000411C2162216800784860E08C401E0004BD
:103CB000000CE084E3D12068C16821F08001C1607C
:103CC0002068C16841F04001C160D8E7206A0088DF
:103CD000C0F308004860206A801C2062E5E74006C7
:103CE000CDD55006CBD5CA68204622F04002CA6026
:103CF00084F8413000F06EF9C1E700001553000868
:103D000070B5040004D094F84100002510B106E01D
:103D1000012070BD84F84050204600F023F8242094
:103D200084F841002068C16821F40051C160204638
:103D300001F02CFC2068016921F4904101612068A8
:103D4000416921F02A0141612068C16841F40051B4
:103D5000C1606564202084F8410084F842006563F6
:103D6000002070BD2DE9F04186B00646142168465A
:103D7000FCF74FFD30493068884259D12F48002464
:103D8000016841F010010160006800F0100005902A
:103D90002A481438016841F0010101600068694651
:103DA00000F0010005904FF4C06000900220CDE9C2
:103DB000010403200390072004902148FEF7DAF95C
:103DC000214D20484FF000672860C5E901744FF489
:103DD0008068C5E903486C61AC61EC612C622846DF
:103DE0006C62FEF713F908B1FDF787FEF563AE6369
:103DF000154D144860357830E5E802074020A5E805
:103E00001101114845F814496030AC61EC612C6235
:103E10006C62FEF7FBF808B1FDF76FFEB563002298
:103E200005212520AE63FEF7FDFD2520FEF7ECFD04
:103E300006B0BDE8F08100000010014044380240A7
:103E400000000240406402406C10002090F84230B4
:103E5000202B01D00220704721B11AB10023036347
:103E600001F01ABC0120704708B500680D4988426E
:103E700017D10020034600900C486A460A49406F5B
:103E800006F0A2F9009838B109494FF08050086057
:103E9000BFF34F8FBFF36F8F0C2203490548FFF725
:103EA000D5FF08BD00100140A80C002048000020EC
:103EB00004ED00E02410002070472DE9F84304468B
:103EC00090F84100984616460D46202802D0022060
:103ED000BDE8F88385B17EB100206064212084F8BC
:103EE0004100FEF749FAA6848146E684A0682027AF
:103EF000B0F5805F02D003E00120E9E7206910B14E
:103F00002E4600250EE000260CE08021204601F020
:103F10000BFCA8B9C6B116F8010B21684860E08C0B
:103F2000401EE084E08C4B464FF00002CDF800804C
:103F30000028EAD14FF04001204601F0F5FB40B1E6
:103F400084F841700320C3E735F8020BC0F3080082
:103F5000E3E784F841700020BAE7000070B504463A
:103F600090F84100202801D0022070BD49B342B32F
:103F70002162A284E28400206064212384F841301D
:103F8000A56B114BEB63A56B104B2B64A56B104B12
:103F9000EB64A36B1865256813462A1DA06BFEF71A
:103FA0009FF821686FF0400008602068143050E8E6
:103FB000001F41F0800140E80012002AF5D10020E6
:103FC00070BD012070BD0000135400085554000856
:103FD0002553000870477047FEE701684A69D243DD
:103FE00052050FD46FF480624A61002140F8301FFF
:103FF000202242738173026942F00402026101735C
:1040000001207047002070472DE9F84F04460068F2
:1040100089460B9D01689846174641F4806101600E
:104020002068016841F48071016000954FF0011B28
:104030000022594620460A9B00F0E4F84FF4007A2B
:1040400040B120680068C00501D5C4F840A0032035
:10405000BDE8F88F216809F0FE0008612B46284969
:1040600020460A9A00F016F9F0BB20684169806981
:1040700000902A4620460A9900F0A2F940B1206C2F
:1040800004283AD12068016841F40071016034E0ED
:10409000FEB2B8F1010F09D02168380A08612A463A
:1040A00020460A9900F08CF90028E8D120680661C2
:1040B0002A4620460A9900F083F90028DFD12068BB
:1040C000016841F480710160009500225946204644
:1040D0000A9B00F097F80028B3D1216809F0FF008F
:1040E00040F00100086100E007E02B46044920464B
:1040F0000A9A00F0CFF80028AAD00120A8E7000013
:10410000020001002DE9F843044600680D46DDE990
:10411000089701689846164641F4807101604B4645
:1041200000224FF001112046009700F06BF848B1D3
:1041300020680068C00502D54FF400702064032099
:10414000BDE8F883216805F0FE0008613B464A4659
:104150001549204600F09EF888B9206841698069B9
:1041600000903A464946204600F02AF948B1206CB2
:10417000042804D12068016841F400710160012025
:10418000DEE7F5B2B8F1010F09D02168300A086105
:104190003A464946204600F013F90028E7D1206846
:1041A00005610020CCE700000200010070B5164652
:1041B0000D4604461EE02046FFF70FFF08B1012020
:1041C00070BD681C16D0FEF7D7F8801BA84200D837
:1041D00085B920684069C04340070BD5002044F8EA
:1041E000300F20216173A073216941F0200121610A
:1041F0002073E4E720684069C0434007DBD4002017
:1042000070BD00002DE9F047984617460D4604465C
:10421000C1F30746DDF820902AE000BFB8F1FF3F68
:1042200026D0FEF7A9F8A0EB0901414502D8B8F164
:10423000000F1DD12068012E16D0806925EA0000EC
:104240000004000C12D00020B84211D1002044F824
:10425000300F20216173A073216941F02001216199
:1042600020730120BDE8F0874069E7E70120EBE714
:104270002068012E0AD0806925EA00000004000CA5
:1042800006D00020B842C9D00020EBE74069F3E730
:104290000120F7E72DE9F047984616460D460446FB
:1042A0004FF000094FF0200AC1F3074723E02068D0
:1042B0004069C043400515D42068016841F400718D
:1042C000016021686FF480604861C4F8309084F820
:1042D0003DA084F83E90216C41F00401216484F8F3
:1042E0003C9021E0701C06D0FEF746F8A0EB0800D9
:1042F000B04203D816B1012F1FD021E02068012F52
:1043000015D0806925EA00000004000C18D000BF19
:1043100044F8309F84F80DA084F80E90216941F094
:104320002001216184F80C900120BDE8F0874069EC
:1043300025EA00000004000CEAD12068406901E091
:104340002068806925EA00000004000CAFD1ECE78A
:104350002DE9F041002590460E460446202728E02E
:104360004069C043C0060CD454F8301B6FF01000F5
:10437000486144F810596777A577206A206225774D
:1043800014E0FDF7F9FFA0EB0800B04200D886B9B1
:1043900020684069C04340060BD544F8305F67731E
:1043A000A573206940F02000206125730120BDE83D
:1043B000F08120684169C9434906D1D40020F6E75D
:1043C00070B516460D4604461EE02046FFF705FE72
:1043D00008B1012070BD681C16D0FDF7CDFF801B11
:1043E000A84200D885B920684069C04300060BD5B3
:1043F000002044F8300F20216173A073216941F03F
:10440000200121612073E4E720684069C043000671
:10441000DBD4002070BD00000D4808B5016841F4F0
:10442000800101600068002200F4800000900521F6
:104430003A20FEF7F7FA3A20FEF7E6FA00220521C5
:104440004620FEF7EFFABDE808404620FEF7DCBA4A
:10445000303802407CB50A210022084605F06BFD89
:10446000214C00220C2120600A2005F064FD6060D0
:1044700000220C210A2005F05EFDA060002204212C
:104480000A2005F058FDE060012005F049FD20619B
:10449000164A0021164804F005FD60610024182525
:1044A000CDE900544FF4C8762346324611A1154891
:1044B00006F07CF8CDE900540023324612A11548DD
:1044C00006F074F8CDE900540023324612A11548D5
:1044D00006F06CF8CDE900540023324612A11648CC
:1044E00006F064F87CBD0000F800002034BA000833
:1044F000514E0008504D5733393031205461736BA1
:104500000000000071520008424D493038382054F4
:1045100061736B0009520008564C353320546173A7
:104520006B000000B9520008466C6967687420434C
:104530006F6E74726F6C0000011B00082DE9F04F64
:1045400087B014216846FCF764F93C4800240168F0
:1045500041F080010160016801F08001059101686E
:1045600041F001010160016801F00101059101685C
:1045700041F002010160016801F00201059101684A
:1045800041F004010160016801F004010591016836
:1045900041F0080101600068DFF8A48000F0080025
:1045A00005900022BC214046FDF7E1FEDFF8949023
:1045B0004FF49856002231464846FDF7D8FEDFF802
:1045C00088A04FF4C857002239465046FDF7CFFE69
:1045D000DFF878B0002204215846FDF7C8FE02201B
:1045E000CDE90004694640460294FDF7C3FDBC20B6
:1045F00000900125CDE90154694640460394FDF73A
:10460000B9FD0096CDE90154694648460394FDF78B
:10461000B1FD0097CDE90154694650460394FDF77A
:10462000A9FD04200090CDE9015469465846039441
:10463000FDF7A0FD07B0BDE8F08F00003038024064
:10464000000402400008024000000240000C02404A
:104650000D4810B50B4901600C49416000214FF431
:1046600080428160C0E9031241618161C1610162E0
:10467000FDF78CFE002803D0BDE81040FDF73DBAE1
:1046800010BD000000540040DC0E0020A086010098
:104690000D4810B50B4901600C49416000214FF4F1
:1046A00080428160C0E9031241618161C1610162A0
:1046B000FDF76CFE002803D0BDE81040FDF71DBAE1
:1046C00010BD000000580040300F0020A0860100FF
:1046D000104810B50E4901604FF48271416000210D
:1046E0008160C1604FF400720161C0E905122822A7
:1046F000C0E90721416281620A21C162FEF786FC9E
:10470000002803D0BDE81040FDF7F7B910BD000048
:1047100000300140840F002010B58EB000240794B3
:10472000089409940A940B941C2168460C94FCF795
:1047300070F829484FF0804101605321C0E901140D
:104740006321C0E903148461FEF7EAFE08B1FDF7B6
:10475000D4F94FF48050079007A91F48FEF760FF77
:1047600008B1FDF7CAF91C48FFF7F1F808B1FDF7E9
:10477000C4F90B940BA918480C94FEF789FE08B1F4
:10478000FDF7BBF96020CDE90004029400226946E0
:1047900011480494FFF775F808B1FDF7AEF904224B
:1047A00069460D48FFF76DF808B1FDF7A6F9082234
:1047B00069460948FFF765F808B1FDF79EF90C2234
:1047C00069460548FFF75DF808B1FDF796F902481C
:1047D000FFF72EF80EB010BDDC0F00200C4810B50E
:1047E0000A4901604FF416514160002181600C229A
:1047F000C160C0E904128161C161FFF781FA00283C
:1048000003D0BDE81040FDF778B910BD001001409D
:1048100024100020FEE7000010B50C4C68B1012800
:1048200012D1002208212046FDF7A1FD01222046D9
:10483000BDE810401021FDF79ABD01220821204655
:10484000FDF795FD0022F2E710BD000000040240D4
:10485000BCEEC00A034910EE100A096880B2486332
:1048600070470000DC0F002070B54FF480710C4BD6
:104870000C4D0C0160B1012810D100221846FDF743
:1048800076FD012221462846BDE87040FDF76FBD48
:1048900001221846FDF76BFD0022F3E770BD000012
:1048A0000008024000000240BCEEC00A034910EEBE
:1048B000100A096880B2C86370470000DC0F00204E
:1048C00070B50D4B0D4D9C1401280DD0002812D150
:1048D000002204211846FDF74AFD01222146284600
:1048E000BDE87040FDF743BD012204211846FDF7E5
:1048F0003EFD0022F2E770BD000C024000080240BD
:10490000BCEEC00A034910EE100A096880B2886341
:1049100070470000DC0F002070B54FF400610C4CB4
:10492000CD1001280CD0002810D100222046FDF720
:104930001EFD012229462046BDE87040FDF717BD47
:1049400001222046FDF713FD0022F3E770BD0000B1
:1049500000000240BCEEC00A034910EE100A0968CC
:1049600080B2086470470000DC0F002010B50122FF
:1049700020210B48FDF7FBFC012251020948FDF7FD
:10498000F6FC0120FFF748FF0120FFF799FF012007
:10499000FFF76AFFBDE810400120FFF7BDBF000030
:1049A0000004024000080240FEE770EEC01A90EDDD
:1049B000000AB6EE002A60EE212A90ED010A20EEF0
:1049C000022A90ED080A22EE003A90ED0A2A72EED1
:1049D000213A90ED092A03EE232A80ED092A90ED71
:1049E000073AB4EEC32AF1EE10FA06DC90ED063A6F
:1049F000B4EEC32AF1EE10FA01D280ED093A90ED3F
:104A0000033AB0EE002AF0EE403A90ED0B4A43EE46
:104A1000423AD0ED0C4A03EE020A70EEE44A63EE2D
:104A2000843A90ED024A24EE024A44EE643A83EE60
:104A3000802A80ED0B2A90ED090A32EEC00A30EE92
:104A4000420A80ED0E0AC0ED0A1AC0ED0C0A80ED94
:104A50000D1A704770EEC01A90ED000AB6EE002AEB
:104A600060EE212A90ED010A20EE022A90ED080A5C
:104A700022EE003A90ED0A2A72EE213A90ED092AD0
:104A800003EE232A80ED092A90ED073AB4EEC32AFB
:104A9000F1EE10FA06DC90ED063AB4EEC32AF1EE20
:104AA00010FA01D280ED093A90ED033AB0EE002AF7
:104AB000F0EE403A90ED0B4A43EE423AD0ED0C4A0C
:104AC00003EE020A70EEE44A63EE843A90ED024A85
:104AD00024EE024A44EE643A83EE802A80ED0B2AEB
:104AE00090ED090A32EEC00A30EE420A80ED0E0A5D
:104AF000C0ED0A1AC0ED0C0A80ED0D1A704780EC6B
:104B0000030A704770B5404C012280212046FDF712
:104B10002EFC0A20FDF71CFB002280212046FDF719
:104B200026FC0A20FDF714FB012280212046FDF718
:104B30001EFC2820FDF70CFB5A213A2001F0EEFA6A
:104B40004FF0FF3590B14FF47A7430A13348FBF742
:104B5000F1FC3248FBF7F1FD82B22B462F49304879
:104B6000FFF7ABF92046FDF7F3FAEEE73220FDF749
:104B7000EFFA00244FF4FA76002000F097F802468E
:104B80004928234613D027A12448FBF7D3FC234808
:104B9000FBF7D3FD82B22B4620492148FFF78DF960
:104BA0003046641CFDF7D4FA3C2CE5D129E023A162
:104BB0001A48FBF7BFFC1948FBF7BFFD82B22B4632
:104BC00016491748FFF779F94FF49670FDF7C0FAC8
:104BD0000A20FDF7BDFA022000F068F8032000F07B
:104BE00065F8042000F062F8052000F05FF8062068
:104BF00000F05CF80A20FDF7ABFA03F04FFC002848
:104C000000D0012070BD000000040240577269749A
:104C100065204661696C656420310000B80300209E
:104C200024100020434849505F49443A2025580940
:104C30004C6F6F703A2025640000000043484950D3
:104C40005F4944203D3D2030783439204944203D9F
:104C5000202558094C6F6F703A2025640000000031
:104C6000034800231A461946006905F0FDB9000003
:104C7000F800002070B505460C46022000F016F83A
:104C8000032000F013F80646042000F00FF846EA6F
:104C900000202880052000F009F80546062000F0D5
:104CA00005F845EA0020208070BD000010B588B0EE
:104CB00000F07F008DF8180000201A4C8DF80400D9
:104CC0000290039004900246059080212046FDF753
:104CD0004EFB4FF0FF33012206A91348FEF728FAD6
:104CE00060B90120FDF734FA4FF47A700090012387
:104CF00001AA02A90C48FEF7D2FA38B1012280219C
:104D00002046FDF734FBFF2008B010BD01228021B2
:104D10002046FDF72CFB0120FDF71AFA9DF8040050
:104D2000F2E7000000040240840F0020F8B51546A9
:104D30000E460B46009204460122022100F02CF898
:104D4000A0B9134813490068B0FBF1F04FF47A7131
:104D5000484300906068B0F5827F0DD13346002251
:104D600080212046009500F017F870B1606D40F08A
:104D7000200060650320F8BD009830B1401E00900F
:104D800020688068C0430006F6D50020F8BD00000A
:104D90001C01002000366E012DE9F8431E469146A5
:104DA00088460446089DFDF7E7FA401B351AFDF7D3
:104DB000E3FA074625480068C0F3CB30684338E083
:104DC000701C37D0FDF7D8FAC01BA84203D215B12A
:104DD000009860B32CE02068416821F0E001416058
:104DE0006068B0F5827F0BD1A068B0F5004F02D0AB
:104DF000B0F5806F04D12068016821F040010160A6
:104E0000A06AB0F5005F09D12068016821F4005163
:104E100001602068016841F400510160012084F8BC
:104E20005100002084F850000320BDE8F8830025DD
:104E3000401E00902068816838EA010004D00021FB
:104E40004945BDD10020F0E70121F9E71C01002010
:104E5000012003F0EBFFFBE710B54FF0E020006905
:104E600005F0FCFB012803D0BDE8104005F042B876
:104E700010BD000030B593B030216846FBF7C9FC87
:104E800014210CA8FBF7C5FC1D480025016841F062
:104E900080510160006800F080501190194801684D
:104EA00041F4804101600068022400F480401190C8
:104EB0000120039010200490009406940820CDE96E
:104EC0000750A820CDE9090404200B906846FDF79F
:104ED000E7FE08B172B6FEE70CA90F2081E83100A9
:104EE0004FF4A0500F904FF48050109005210CA863
:104EF000FDF7CAFD002801D072B6FEE713B030BD41
:104F000040380240007000400248016841F47001DE
:104F10000160704788ED00E00148FEF7F0BB00003B
:104F20002C110020F0B50268294C2A4D2A4E2B4F37
:104F30002B4B4FF0804CA04209D0604507D0A842CF
:104F400005D0B04203D0B84201D0984204D122F03B
:104F5000700E4A6842EA0E02A0421BD0604519D08A
:104F6000A84217D0B04215D0B84213D0984211D001
:104F70001C4DA8420ED01C4DA8420BD01B4DA84280
:104F800008D01B4DA84205D01A4DA84202D01A4D98
:104F9000A84203D122F44075CA682A434D6922F021
:104FA00080022A4302608A68C2620A688262A04262
:104FB00001D0984201D10969016301214161016970
:104FC000C90703D0016921F001010161F0BD0000B2
:104FD000000001400004004000080040000C0040B8
:104FE00000040140004001400044014000480140ED
:104FF00000180040001C00400020004010B501F0E7
:105000001F030121046A99408C430462016A9A409B
:105010001143016210BD10B5846842EA032224F4F2
:105020007F440A432243826010BD826822F07002EE
:105030000A4342F00701816070470000F0B5036A3F
:10504000026A22F00102026242688469124E24F070
:1050500073050C682C4323F002058B682B430D4D20
:10506000A84201D0B04205D123F00807CB683B43EA
:1050700023F00403A84201D0B04205D14D6922F4C7
:10508000407215438A692A434260846149684163DA
:105090000362F0BD0000014000040140F0B5026A67
:1050A000036A23F010030362436884690D6824F4E3
:1050B000E64444EA05248D6822F0200242EA051203
:1050C0000F4D104EA84201D0B04206D1CF6822F059
:1050D000800242EA071222F04002A84201D0B04208
:1050E00007D14D6923F4406343EA85038D6943EAA0
:1050F000850343608461496881630262F0BD0000FA
:105100000000014000040140F0B5026A036A23F484
:10511000807303624368C46922F4007224F073054B
:105120000C68124E2C438D6842EA05220E4DA842AF
:1051300001D0B04206D1CF6822F4006242EA0722D1
:1051400022F48062A84201D0B04207D14D6923F415
:10515000405343EA05138D6943EA05134360C46174
:105160004968C1630262F0BD0000014000040140D3
:1051700030B5046A026A22F4805202624268C3694E
:105180000D6823F4E64343EA05238D6824F40054B4
:1051900044EA0534084DA84202D0084DA84204D183
:1051A0004D6922F4804242EA85124260C361496837
:1051B0000164046230BD00000000014000040140B1
:1051C00010B5036A046A24F001040462846924F0BF
:1051D000F00444EA021423F00A020A4384610262E2
:1051E00010BD10B5036A046A24F0100404628469D7
:1051F00023F0A00324F4704444EA023243EA01118C
:105200008261016210BD0000144D154E154FDFF88C
:1052100058804FF0FF342146286805F0D1F8FCF79C
:10522000C1FD02F077FBFFF71BFD002322460F496B
:10523000306804F019FF0D49002322460C3138680C
:1052400004F012FF00231A461946D8F8000004F0B3
:105250000BFF0A2004F0A6FCDDE70000EC000020B4
:10526000FC00002000010020F4000020A00300202A
:105270000D4D0E4E0E4F4FF0FF342146286805F0BD
:105280009FF803F055FE002322460A49306804F0D7
:10529000EBFE00231A461946386804F0E5FE0A20A2
:1052A00004F080FCE9E70000E8000020F80000209E
:1052B000EC0000203C000020124D134E134F4FF025
:1052C000FF3400BF05F0D8F92146286805F078F8CA
:1052D000FCF768FD0E4800F0D5FDFFF7C1FC002388
:1052E00022460B49306804F0BFFE05F0C5F90023E3
:1052F0001A461946386804F0B7FE0A2004F052FC3A
:10530000E0E70000F400002004010020F00000208D
:105310004400002010B5806B0021C185C184FEF7D8
:10532000B5FB10BD70B5846B2068406994F84110DE
:10533000C0F3C0100025212904D118B1E58420460E
:1053400000F0B4F82068406994F84210C0F380106F
:10535000222904D118B1E585204600F080F8606C60
:1053600040F0100060642046FEF790FB70BD10B561
:105370000146806B096809684FF00002C9052ED408
:10538000C28501680C3151E8003F23F4807341E885
:105390000034002CF5D10168143151E8003F23F0AE
:1053A000010341E80034002CF5D10168143151E8C3
:1053B000003F23F0400341E80034002CF5D12021C8
:1053C00080F84210016B012909D101680C3151E8C4
:1053D000003F23F0100341E80034002CF5D1426374
:1053E000016B012902D0FEF73FFD10BD818DFEF754
:1053F0004CFB10BD10B5806B01214163016B01298D
:1054000002D0FEF759FD10BD818D4908FEF73DFB26
:1054100010BD10B50146806B09680968C90516D42E
:105420000021C1840168143151E8002F22F080026C
:1054300041E80023002BF5D101680C3151E8002F21
:1054400042F0400241E80023002BF5D110BDFEF7E9
:10545000C1FD10BD10B5806BFEF7BDFD10BD01682C
:105460000C3151E8002F22F4907241E80023002B08
:10547000F5D10168143151E8002F22F0010241E812
:105480000023002BF5D1016B012909D101680C31F2
:1054900051E8002F22F0100241E80023002BF5D143
:1054A000202180F8421000210163704701680C310F
:1054B00051E8002F22F0C00241E80023002BF5D173
:1054C000202180F84110704708B590F84210222939
:1054D00001D0022008BD82684FF480539A4201D166
:1054E000016921B1816A9A421BD04AB10AE002687F
:1054F000816A5268C2F308020A80816A891C08E046
:10550000026972B10268526802F07F020A70816A11
:10551000491C8162C18D491E0904090CC18503D053
:105520001BE002685268F1E70168CA6822F02002B5
:10553000CA600168CA6822F48072CA6001684A6958
:1055400022F001024A61202180F8421000214163CB
:10555000026B012A03D0FEF787FC002008BD01631F
:1055600001680C3151E8002F22F0100241E80023BD
:10557000002BF5D101680A68D20602D50A6849688D
:105580000091818DFEF781FAE7E7000070B50446CF
:1055900000680169E26821F4405111430161216909
:1055A000A068E26908436169114308432168CA6839
:1055B00049F20C639A430243CA6020684169A269B8
:1055C00021F440711143416131492068884202D081
:1055D0003049884202D1FDF721FB01E0FDF70EFBC7
:1055E000E2690023192164253226B2F5004F626872
:1055F00028D0A0FB0101930F9200FAF723FF014688
:10560000B0FBF5F06FF01802504301EB800006EBA1
:105610000010B0FBF5F000F0F002B1FBF5F002EB8A
:105620000012B1FBF5F06FF01803584301EB800056
:1056300006EB0010B0FBF5F000F00F0021681044FD
:10564000886070BDA0FB010192185B41FAF7FAFE79
:105650000146B0FBF5F00201B1FBF5F06FF0180365
:10566000584301EB800006EBC000B0FBF5F000F002
:10567000F80002EB4002B1FBF5F0584301EB80006B
:1056800006EBC000B0FBF5F000F00700D6E7000025
:10569000001001400014014038B581620446828543
:1056A000002013466064222284F84220E56B1B4AE6
:1056B000EA63E56B1A4A2A64E56B1A4AEA64E26B0C
:1056C00010650A462168E06B091DFCF709FD20689A
:1056D000016840680090206948B120680C3050E8AB
:1056E000001F41F4807140E80012002AF5D12068C3
:1056F000143050E8001F41F0010140E80012002A78
:10570000F5D12068143050E8001F41F0400140E816
:105710000012002AF5D1002038BD00006F530008A8
:10572000F5530008255300082DE9F843984617461D
:105730000D460446089E24E0701C22D0FCF71CFE97
:10574000A0EB0800B0421AD8CEB12068C168490762
:1057500017D5802D15D0402D13D00168C9430907F6
:105760000FD401680025406800902046FFF777FEBF
:105770000820606484F840500120BDE8F8830320CD
:10578000FBE72068006835EA000004D00020B8423A
:10579000D2D00020F1E70120F9E700000148FEF730
:1057A00077B9000024100020FEE7000038B50D4650
:1057B00000218DF800106A46E52100F087FA9DF877
:1057C000003004462B709DF800200AA11148FAF71A
:1057D000B1FE1048FAF7B1FF82B24FF47A730D4967
:1057E0000D48FEF76AFB4FF4FA70FCF7B1FC204657
:1057F00038BD0000426F6F7453746174652C20745F
:105800006D70203D2025582C7374617465203D20F7
:1058100025580000B8070020241000207CB50C4655
:10582000064601A900F037F805466A4631213046A0
:1058300000F04CFA28430BD19DF800109DF804208D
:1058400001F00101914201D1012100E0002121700C
:105850007CBD0122862100F0C9BA38B50C466A46E3
:10586000962100F073FABDF80010218038BD38B5DC
:105870000C466A464B2100F029FAC1B29DF800009F
:10588000142802D00A2802D003E0012000E0022000
:10589000208048B238BD38B50C466A46302100F049
:1058A00015FA9DF8001001F010018DF8001009099B
:1058B00002D00021217038BD0121FBE738B50C462C
:1058C000FF2121706A46892100F000FA9DF800103E
:1058D00001F01F018DF80010182902D2014A515C15
:1058E000217038BD19BA000838B50C466A465E21E9
:1058F00000F02CFABDF80010B1F5D77F2ED00EDCE9
:10590000602929D006DC1D2922D01E2922D0512948
:105910001BD11FE0AD2921D0D62916D11CE040F2C1
:10592000E133A1F2E13299421CD009DCB1F5E67F06
:1059300016D0A1F50071D93914D0082905D10FE08E
:10594000AE2A11D0B2F5D87F0ED0012000210DE093
:105950000F210BE0142109E0212107E0322105E0AD
:10596000642103E0C82101E04FF4FA71218038BDC1
:10597000F8B500251A4F06462D243819214610F88F
:105980002D2C304600F032FA641C0543E4B2872C1B
:10599000F3D9304600F092F940EA050400208DF872
:1059A000000069463046FFF739FF04439DF80000C8
:1059B0000028F6D03046FFF74CFF0443304600F095
:1059C00081F9044309220821304600F00FFA04430C
:1059D00000220B21304600F009FA2043F8BD0000F8
:1059E000BEB9000838B50D4604466946FFF77CFF8E
:1059F00018B9012D03D0022D1ED0012038BD14226C
:105A00004B21204600F0F2F907226021204600F0E9
:105A1000EDF905226321204600F0E8F938226921DA
:105A2000204600F0E3F940F205727821204600F0AC
:105A30000BFA40F206621BE00A224B21204600F0DE
:105A4000D5F90F226021204600F0D0F90D22632104
:105A5000204600F0CBF9B8226921204600F0C6F9B3
:105A600040F60D727821204600F0EEF940F60E6205
:105A70007A21204600F0E8F90028BFD1BDF80010D7
:105A8000204600F06BF838BD2DE9F8438046002031
:105A900016460D468DF800001F46089C6A464621B2
:105AA000404600F013F99DF8000007F0070200F0EF
:105AB00047008DF8000042EA00020CB142F04002BB
:105AC0004621404600F092F9044632467221404693
:105AD00000F0BAF904432A467421404600F0B4F9B4
